{
  "_format": "hh-sol-artifact-1",
  "contractName": "DocStorage",
  "sourceName": "contracts/DocStorage.sol",
  "abi": [
    {
      "anonymous": false,
      "inputs": [
        {
          "indexed": true,
          "internalType": "string",
          "name": "documentHash",
          "type": "string"
        },
        {
          "indexed": true,
          "internalType": "address",
          "name": "recipient",
          "type": "address"
        }
      ],
      "name": "DocumentShared",
      "type": "event"
    },
    {
      "inputs": [
        {
          "internalType": "string",
          "name": "_name",
          "type": "string"
        },
        {
          "internalType": "string",
          "name": "_hash",
          "type": "string"
        },
        {
          "internalType": "string",
          "name": "_encKey",
          "type": "string"
        }
      ],
      "name": "addDoc",
      "outputs": [],
      "stateMutability": "nonpayable",
      "type": "function"
    },
    {
      "inputs": [],
      "name": "getDocsOwner",
      "outputs": [
        {
          "components": [
            {
              "internalType": "string",
              "name": "docHash",
              "type": "string"
            },
            {
              "internalType": "string",
              "name": "docName",
              "type": "string"
            },
            {
              "internalType": "string",
              "name": "encKey",
              "type": "string"
            }
          ],
          "internalType": "struct DocStorage.DocumentInfo[]",
          "name": "",
          "type": "tuple[]"
        }
      ],
      "stateMutability": "view",
      "type": "function"
    },
    {
      "inputs": [],
      "name": "getDocsShared",
      "outputs": [
        {
          "components": [
            {
              "internalType": "string",
              "name": "docHash",
              "type": "string"
            },
            {
              "internalType": "string",
              "name": "docName",
              "type": "string"
            },
            {
              "internalType": "string",
              "name": "encKey",
              "type": "string"
            }
          ],
          "internalType": "struct DocStorage.DocumentInfo[]",
          "name": "",
          "type": "tuple[]"
        }
      ],
      "stateMutability": "view",
      "type": "function"
    },
    {
      "inputs": [
        {
          "internalType": "string",
          "name": "_docHash",
          "type": "string"
        },
        {
          "internalType": "address",
          "name": "_recipient",
          "type": "address"
        },
        {
          "internalType": "string",
          "name": "_encKey",
          "type": "string"
        }
      ],
      "name": "shareDocument",
      "outputs": [],
      "stateMutability": "nonpayable",
      "type": "function"
    },
    {
      "inputs": [],
      "name": "totCount",
      "outputs": [
        {
          "internalType": "uint256",
          "name": "",
          "type": "uint256"
        }
      ],
      "stateMutability": "view",
      "type": "function"
    }
  ],
  "bytecode": "0x6080604052600060025534801561001557600080fd5b5061157c806100256000396000f3fe608060405234801561001057600080fd5b50600436106100575760003560e01c8063073a83621461005c5780630c905252146100785780637336fa1814610096578063b48e82b5146100b4578063fe6362ae146100d2575b600080fd5b61007660048036038101906100719190610d13565b6100ee565b005b610080610267565b60405161008d9190610f3d565b60405180910390f35b61009e6105d7565b6040516100ab9190610f3d565b60405180910390f35b6100bc61095a565b6040516100c99190610f78565b60405180910390f35b6100ec60048036038101906100e79190610f93565b610960565b005b3373ffffffffffffffffffffffffffffffffffffffff166000846040516101159190611076565b908152602001604051809103902060020160009054906101000a900473ffffffffffffffffffffffffffffffffffffffff1673ffffffffffffffffffffffffffffffffffffffff161461019d576040517f08c379a000000000000000000000000000000000000000000000000000000000815260040161019490611110565b60405180910390fd5b806000846040516101ae9190611076565b908152602001604051809103902060030160008473ffffffffffffffffffffffffffffffffffffffff1673ffffffffffffffffffffffffffffffffffffffff1681526020019081526020016000209081610208919061133c565b508173ffffffffffffffffffffffffffffffffffffffff168360405161022e9190611076565b60405180910390207fa4f804a97dcc8d776ee672072bb9d8db5dd3f2d66a5df347a99ea30acd18909660405160405180910390a3505050565b6060600060025467ffffffffffffffff81111561028757610286610b8a565b5b6040519080825280602002602001820160405280156102c057816020015b6102ad610b3a565b8152602001906001900390816102a55790505b50905060005b6001805490508110156105cf576000600182815481106102e9576102e861140e565b5b9060005260206000200180546102fe9061115f565b80601f016020809104026020016040519081016040528092919081815260200182805461032a9061115f565b80156103775780601f1061034c57610100808354040283529160200191610377565b820191906000526020600020905b81548152906001019060200180831161035a57829003601f168201915b505050505090503373ffffffffffffffffffffffffffffffffffffffff166000826040516103a59190611076565b908152602001604051809103902060020160009054906101000a900473ffffffffffffffffffffffffffffffffffffffff1673ffffffffffffffffffffffffffffffffffffffff16036105bb5760405180606001604052808281526020016000836040516104139190611076565b9081526020016040518091039020600001805461042f9061115f565b80601f016020809104026020016040519081016040528092919081815260200182805461045b9061115f565b80156104a85780601f1061047d576101008083540402835291602001916104a8565b820191906000526020600020905b81548152906001019060200180831161048b57829003601f168201915b505050505081526020016000836040516104c29190611076565b908152602001604051809103902060030160003373ffffffffffffffffffffffffffffffffffffffff1673ffffffffffffffffffffffffffffffffffffffff168152602001908152602001600020805461051b9061115f565b80601f01602080910402602001604051908101604052809291908181526020018280546105479061115f565b80156105945780601f1061056957610100808354040283529160200191610594565b820191906000526020600020905b81548152906001019060200180831161057757829003601f168201915b50505050508152508383815181106105af576105ae61140e565b5b60200260200101819052505b5080806105c79061146c565b9150506102c6565b508091505090565b6060600060025467ffffffffffffffff8111156105f7576105f6610b8a565b5b60405190808252806020026020018201604052801561063057816020015b61061d610b3a565b8152602001906001900390816106155790505b5090506000805b60018054905081101561094e5760006001828154811061065a5761065961140e565b5b90600052602060002001805461066f9061115f565b80601f016020809104026020016040519081016040528092919081815260200182805461069b9061115f565b80156106e85780601f106106bd576101008083540402835291602001916106e8565b820191906000526020600020905b8154815290600101906020018083116106cb57829003601f168201915b505050505090503373ffffffffffffffffffffffffffffffffffffffff166000826040516107169190611076565b908152602001604051809103902060020160009054906101000a900473ffffffffffffffffffffffffffffffffffffffff1673ffffffffffffffffffffffffffffffffffffffff161461093a5760405180606001604052808281526020016000836040516107849190611076565b908152602001604051809103902060000180546107a09061115f565b80601f01602080910402602001604051908101604052809291908181526020018280546107cc9061115f565b80156108195780601f106107ee57610100808354040283529160200191610819565b820191906000526020600020905b8154815290600101906020018083116107fc57829003601f168201915b505050505081526020016000836040516108339190611076565b908152602001604051809103902060030160003373ffffffffffffffffffffffffffffffffffffffff1673ffffffffffffffffffffffffffffffffffffffff168152602001908152602001600020805461088c9061115f565b80601f01602080910402602001604051908101604052809291908181526020018280546108b89061115f565b80156109055780601f106108da57610100808354040283529160200191610905565b820191906000526020600020905b8154815290600101906020018083116108e857829003601f168201915b50505050508152508484815181106109205761091f61140e565b5b602002602001018190525082806109369061146c565b9350505b5080806109469061146c565b915050610637565b50808252819250505090565b60025481565b600073ffffffffffffffffffffffffffffffffffffffff166000836040516109889190611076565b908152602001604051809103902060020160009054906101000a900473ffffffffffffffffffffffffffffffffffffffff1673ffffffffffffffffffffffffffffffffffffffff1614610a10576040517f08c379a0000000000000000000000000000000000000000000000000000000008152600401610a0790611526565b60405180910390fd5b60008083604051610a219190611076565b9081526020016040518091039020905083816000019081610a42919061133c565b5082816001019081610a54919061133c565b50338160020160006101000a81548173ffffffffffffffffffffffffffffffffffffffff021916908373ffffffffffffffffffffffffffffffffffffffff160217905550818160030160003373ffffffffffffffffffffffffffffffffffffffff1673ffffffffffffffffffffffffffffffffffffffff1681526020019081526020016000209081610ae6919061133c565b50600183908060018154018082558091505060019003906000526020600020016000909190919091509081610b1b919061133c565b5060026000815480929190610b2f9061146c565b919050555050505050565b60405180606001604052806060815260200160608152602001606081525090565b6000604051905090565b600080fd5b600080fd5b600080fd5b600080fd5b6000601f19601f8301169050919050565b7f4e487b7100000000000000000000000000000000000000000000000000000000600052604160045260246000fd5b610bc282610b79565b810181811067ffffffffffffffff82111715610be157610be0610b8a565b5b80604052505050565b6000610bf4610b5b565b9050610c008282610bb9565b919050565b600067ffffffffffffffff821115610c2057610c1f610b8a565b5b610c2982610b79565b9050602081019050919050565b82818337600083830152505050565b6000610c58610c5384610c05565b610bea565b905082815260208101848484011115610c7457610c73610b74565b5b610c7f848285610c36565b509392505050565b600082601f830112610c9c57610c9b610b6f565b5b8135610cac848260208601610c45565b91505092915050565b600073ffffffffffffffffffffffffffffffffffffffff82169050919050565b6000610ce082610cb5565b9050919050565b610cf081610cd5565b8114610cfb57600080fd5b50565b600081359050610d0d81610ce7565b92915050565b600080600060608486031215610d2c57610d2b610b65565b5b600084013567ffffffffffffffff811115610d4a57610d49610b6a565b5b610d5686828701610c87565b9350506020610d6786828701610cfe565b925050604084013567ffffffffffffffff811115610d8857610d87610b6a565b5b610d9486828701610c87565b9150509250925092565b600081519050919050565b600082825260208201905092915050565b6000819050602082019050919050565b600081519050919050565b600082825260208201905092915050565b60005b83811015610e04578082015181840152602081019050610de9565b60008484015250505050565b6000610e1b82610dca565b610e258185610dd5565b9350610e35818560208601610de6565b610e3e81610b79565b840191505092915050565b60006060830160008301518482036000860152610e668282610e10565b91505060208301518482036020860152610e808282610e10565b91505060408301518482036040860152610e9a8282610e10565b9150508091505092915050565b6000610eb38383610e49565b905092915050565b6000602082019050919050565b6000610ed382610d9e565b610edd8185610da9565b935083602082028501610eef85610dba565b8060005b85811015610f2b5784840389528151610f0c8582610ea7565b9450610f1783610ebb565b925060208a01995050600181019050610ef3565b50829750879550505050505092915050565b60006020820190508181036000830152610f578184610ec8565b905092915050565b6000819050919050565b610f7281610f5f565b82525050565b6000602082019050610f8d6000830184610f69565b92915050565b600080600060608486031215610fac57610fab610b65565b5b600084013567ffffffffffffffff811115610fca57610fc9610b6a565b5b610fd686828701610c87565b935050602084013567ffffffffffffffff811115610ff757610ff6610b6a565b5b61100386828701610c87565b925050604084013567ffffffffffffffff81111561102457611023610b6a565b5b61103086828701610c87565b9150509250925092565b600081905092915050565b600061105082610dca565b61105a818561103a565b935061106a818560208601610de6565b80840191505092915050565b60006110828284611045565b915081905092915050565b600082825260208201905092915050565b7f596f7520617265206e6f7420746865206f776e6572206f66207468697320646f60008201527f63756d656e740000000000000000000000000000000000000000000000000000602082015250565b60006110fa60268361108d565b91506111058261109e565b604082019050919050565b60006020820190508181036000830152611129816110ed565b9050919050565b7f4e487b7100000000000000000000000000000000000000000000000000000000600052602260045260246000fd5b6000600282049050600182168061117757607f821691505b60208210810361118a57611189611130565b5b50919050565b60008190508160005260206000209050919050565b60006020601f8301049050919050565b600082821b905092915050565b6000600883026111f27fffffffffffffffffffffffffffffffffffffffffffffffffffffffffffffffff826111b5565b6111fc86836111b5565b95508019841693508086168417925050509392505050565b6000819050919050565b600061123961123461122f84610f5f565b611214565b610f5f565b9050919050565b6000819050919050565b6112538361121e565b61126761125f82611240565b8484546111c2565b825550505050565b600090565b61127c61126f565b61128781848461124a565b505050565b5b818110156112ab576112a0600082611274565b60018101905061128d565b5050565b601f8211156112f0576112c181611190565b6112ca846111a5565b810160208510156112d9578190505b6112ed6112e5856111a5565b83018261128c565b50505b505050565b600082821c905092915050565b6000611313600019846008026112f5565b1980831691505092915050565b600061132c8383611302565b9150826002028217905092915050565b61134582610dca565b67ffffffffffffffff81111561135e5761135d610b8a565b5b611368825461115f565b6113738282856112af565b600060209050601f8311600181146113a65760008415611394578287015190505b61139e8582611320565b865550611406565b601f1984166113b486611190565b60005b828110156113dc578489015182556001820191506020850194506020810190506113b7565b868310156113f957848901516113f5601f891682611302565b8355505b6001600288020188555050505b505050505050565b7f4e487b7100000000000000000000000000000000000000000000000000000000600052603260045260246000fd5b7f4e487b7100000000000000000000000000000000000000000000000000000000600052601160045260246000fd5b600061147782610f5f565b91507fffffffffffffffffffffffffffffffffffffffffffffffffffffffffffffffff82036114a9576114a861143d565b5b600182019050919050565b7f446f63756d656e7420776974682074686973206861736820616c72656164792060008201527f6578697374730000000000000000000000000000000000000000000000000000602082015250565b600061151060268361108d565b915061151b826114b4565b604082019050919050565b6000602082019050818103600083015261153f81611503565b905091905056fea26469706673582212204f6906bfa8d7da05546e66218a7c4c8bdc15e300bebc9597faf2d0a7af99813f64736f6c63430008130033",
  "linkReferences": {},
  "deployedLinkReferences": {}
}