{
  "_format": "hh-sol-artifact-1",
  "contractName": "UserInfo",
  "sourceName": "contracts/UserInfo.sol",
  "abi": [
    {
      "inputs": [
        {
          "internalType": "uint256",
          "name": "_facultyId",
          "type": "uint256"
        },
        {
          "internalType": "string",
          "name": "_name",
          "type": "string"
        },
        {
          "internalType": "string",
          "name": "_email",
          "type": "string"
        },
        {
          "internalType": "string",
          "name": "_phone",
          "type": "string"
        },
        {
          "internalType": "string",
          "name": "_position",
          "type": "string"
        },
        {
          "internalType": "string",
          "name": "_department",
          "type": "string"
        },
        {
          "internalType": "string",
          "name": "_institute",
          "type": "string"
        },
        {
          "internalType": "string",
          "name": "_city",
          "type": "string"
        }
      ],
      "name": "addFaculty",
      "outputs": [],
      "stateMutability": "nonpayable",
      "type": "function"
    },
    {
      "inputs": [
        {
          "internalType": "uint256",
          "name": "_studentId",
          "type": "uint256"
        },
        {
          "internalType": "string",
          "name": "_name",
          "type": "string"
        },
        {
          "internalType": "string",
          "name": "_dob",
          "type": "string"
        },
        {
          "internalType": "string",
          "name": "_email",
          "type": "string"
        },
        {
          "internalType": "string",
          "name": "_phone",
          "type": "string"
        },
        {
          "internalType": "string",
          "name": "_institute",
          "type": "string"
        },
        {
          "internalType": "string",
          "name": "_city",
          "type": "string"
        },
        {
          "internalType": "string",
          "name": "_yearofgrad",
          "type": "string"
        }
      ],
      "name": "addStudent",
      "outputs": [],
      "stateMutability": "nonpayable",
      "type": "function"
    },
    {
      "inputs": [],
      "name": "facultyCount",
      "outputs": [
        {
          "internalType": "uint256",
          "name": "",
          "type": "uint256"
        }
      ],
      "stateMutability": "view",
      "type": "function"
    },
    {
      "inputs": [
        {
          "internalType": "address",
          "name": "",
          "type": "address"
        }
      ],
      "name": "facultylist",
      "outputs": [
        {
          "internalType": "uint256",
          "name": "facultyId",
          "type": "uint256"
        },
        {
          "internalType": "string",
          "name": "name",
          "type": "string"
        },
        {
          "internalType": "string",
          "name": "email",
          "type": "string"
        },
        {
          "internalType": "string",
          "name": "phone",
          "type": "string"
        },
        {
          "internalType": "string",
          "name": "position",
          "type": "string"
        },
        {
          "internalType": "string",
          "name": "department",
          "type": "string"
        },
        {
          "internalType": "string",
          "name": "institute",
          "type": "string"
        },
        {
          "internalType": "string",
          "name": "city",
          "type": "string"
        }
      ],
      "stateMutability": "view",
      "type": "function"
    },
    {
      "inputs": [
        {
          "internalType": "address",
          "name": "_publicKey",
          "type": "address"
        }
      ],
      "name": "getFacultyInfo",
      "outputs": [
        {
          "internalType": "uint256",
          "name": "",
          "type": "uint256"
        },
        {
          "internalType": "string",
          "name": "",
          "type": "string"
        },
        {
          "internalType": "string",
          "name": "",
          "type": "string"
        },
        {
          "internalType": "string",
          "name": "",
          "type": "string"
        },
        {
          "internalType": "string",
          "name": "",
          "type": "string"
        },
        {
          "internalType": "string",
          "name": "",
          "type": "string"
        },
        {
          "internalType": "string",
          "name": "",
          "type": "string"
        },
        {
          "internalType": "string",
          "name": "",
          "type": "string"
        }
      ],
      "stateMutability": "view",
      "type": "function"
    },
    {
      "inputs": [
        {
          "internalType": "address",
          "name": "_publicKey",
          "type": "address"
        }
      ],
      "name": "getStudentInfo",
      "outputs": [
        {
          "internalType": "uint256",
          "name": "",
          "type": "uint256"
        },
        {
          "internalType": "string",
          "name": "",
          "type": "string"
        },
        {
          "internalType": "string",
          "name": "",
          "type": "string"
        },
        {
          "internalType": "string",
          "name": "",
          "type": "string"
        },
        {
          "internalType": "string",
          "name": "",
          "type": "string"
        },
        {
          "internalType": "string",
          "name": "",
          "type": "string"
        },
        {
          "internalType": "string",
          "name": "",
          "type": "string"
        },
        {
          "internalType": "string",
          "name": "",
          "type": "string"
        }
      ],
      "stateMutability": "view",
      "type": "function"
    },
    {
      "inputs": [],
      "name": "getUserInfo",
      "outputs": [
        {
          "internalType": "uint256",
          "name": "",
          "type": "uint256"
        },
        {
          "internalType": "string",
          "name": "",
          "type": "string"
        },
        {
          "internalType": "string",
          "name": "",
          "type": "string"
        },
        {
          "internalType": "string",
          "name": "",
          "type": "string"
        },
        {
          "internalType": "string",
          "name": "",
          "type": "string"
        },
        {
          "internalType": "string",
          "name": "",
          "type": "string"
        },
        {
          "internalType": "string",
          "name": "",
          "type": "string"
        },
        {
          "internalType": "string",
          "name": "",
          "type": "string"
        }
      ],
      "stateMutability": "view",
      "type": "function"
    },
    {
      "inputs": [],
      "name": "getUserRole",
      "outputs": [
        {
          "internalType": "string",
          "name": "",
          "type": "string"
        }
      ],
      "stateMutability": "view",
      "type": "function"
    },
    {
      "inputs": [],
      "name": "studentCount",
      "outputs": [
        {
          "internalType": "uint256",
          "name": "",
          "type": "uint256"
        }
      ],
      "stateMutability": "view",
      "type": "function"
    },
    {
      "inputs": [
        {
          "internalType": "address",
          "name": "",
          "type": "address"
        }
      ],
      "name": "studentlist",
      "outputs": [
        {
          "internalType": "uint256",
          "name": "studentId",
          "type": "uint256"
        },
        {
          "internalType": "string",
          "name": "name",
          "type": "string"
        },
        {
          "internalType": "string",
          "name": "email",
          "type": "string"
        },
        {
          "internalType": "string",
          "name": "phone",
          "type": "string"
        },
        {
          "internalType": "string",
          "name": "dob",
          "type": "string"
        },
        {
          "internalType": "string",
          "name": "yearofgrad",
          "type": "string"
        },
        {
          "internalType": "string",
          "name": "institute",
          "type": "string"
        },
        {
          "internalType": "string",
          "name": "city",
          "type": "string"
        }
      ],
      "stateMutability": "view",
      "type": "function"
    },
    {
      "inputs": [
        {
          "internalType": "uint256",
          "name": "_facultyId",
          "type": "uint256"
        },
        {
          "internalType": "string",
          "name": "_name",
          "type": "string"
        },
        {
          "internalType": "string",
          "name": "_email",
          "type": "string"
        },
        {
          "internalType": "string",
          "name": "_phone",
          "type": "string"
        },
        {
          "internalType": "string",
          "name": "_position",
          "type": "string"
        },
        {
          "internalType": "string",
          "name": "_department",
          "type": "string"
        },
        {
          "internalType": "string",
          "name": "_institute",
          "type": "string"
        },
        {
          "internalType": "string",
          "name": "_city",
          "type": "string"
        }
      ],
      "name": "updateFaculty",
      "outputs": [],
      "stateMutability": "nonpayable",
      "type": "function"
    },
    {
      "inputs": [
        {
          "internalType": "uint256",
          "name": "_studentId",
          "type": "uint256"
        },
        {
          "internalType": "string",
          "name": "_name",
          "type": "string"
        },
        {
          "internalType": "string",
          "name": "_dob",
          "type": "string"
        },
        {
          "internalType": "string",
          "name": "_email",
          "type": "string"
        },
        {
          "internalType": "string",
          "name": "_phone",
          "type": "string"
        },
        {
          "internalType": "string",
          "name": "_institute",
          "type": "string"
        },
        {
          "internalType": "string",
          "name": "_city",
          "type": "string"
        },
        {
          "internalType": "string",
          "name": "_yearofgrad",
          "type": "string"
        }
      ],
      "name": "updateStudent",
      "outputs": [],
      "stateMutability": "nonpayable",
      "type": "function"
    },
    {
      "inputs": [
        {
          "internalType": "address",
          "name": "",
          "type": "address"
        }
      ],
      "name": "userRoles",
      "outputs": [
        {
          "internalType": "uint256",
          "name": "",
          "type": "uint256"
        }
      ],
      "stateMutability": "view",
      "type": "function"
    }
  ],
  "bytecode": "0x608060405234801561001057600080fd5b50612d93806100206000396000f3fe608060405234801561001057600080fd5b50600436106100cf5760003560e01c80637615c36a1161008c578063e581f9ee11610066578063e581f9ee14610227578063f50f6bf914610245578063f712fcde14610261578063fe1ff3c214610298576100cf565b80637615c36a146101cf5780639bd0000b146101ed578063bf04a10d14610209576100cf565b806322027604146100d45780634b82caec1461010b5780634e9bdaac1461014257806356158a641461015e5780635d8d15851461017a57806374d5e1001461019f575b600080fd5b6100ee60048036038101906100e99190612190565b6102cf565b604051610102989796959493929190612266565b60405180910390f35b61012560048036038101906101209190612190565b61080a565b604051610139989796959493929190612266565b60405180910390f35b61015c60048036038101906101579190612476565b610d45565b005b61017860048036038101906101739190612476565b610f16565b005b610182611158565b604051610196989796959493929190612266565b60405180910390f35b6101b960048036038101906101b49190612190565b611295565b6040516101c691906125f0565b60405180910390f35b6101d76112ad565b6040516101e491906125f0565b60405180910390f35b61020760048036038101906102029190612476565b6112b3565b005b6102116114f4565b60405161021e919061260b565b60405180910390f35b61022f61165c565b60405161023c91906125f0565b60405180910390f35b61025f600480360381019061025a9190612476565b611662565b005b61027b60048036038101906102769190612190565b611831565b60405161028f989796959493929190612266565b60405180910390f35b6102b260048036038101906102ad9190612190565b611c31565b6040516102c6989796959493929190612266565b60405180910390f35b600060608060608060608060606002808111156102ef576102ee61262d565b5b600260003373ffffffffffffffffffffffffffffffffffffffff1673ffffffffffffffffffffffffffffffffffffffff168152602001908152602001600020541461036f576040517f08c379a0000000000000000000000000000000000000000000000000000000008152600401610366906126ce565b60405180910390fd5b6000600160008b73ffffffffffffffffffffffffffffffffffffffff1673ffffffffffffffffffffffffffffffffffffffff16815260200190815260200160002060405180610100016040529081600082015481526020016001820180546103d69061271d565b80601f01602080910402602001604051908101604052809291908181526020018280546104029061271d565b801561044f5780601f106104245761010080835404028352916020019161044f565b820191906000526020600020905b81548152906001019060200180831161043257829003601f168201915b505050505081526020016002820180546104689061271d565b80601f01602080910402602001604051908101604052809291908181526020018280546104949061271d565b80156104e15780601f106104b6576101008083540402835291602001916104e1565b820191906000526020600020905b8154815290600101906020018083116104c457829003601f168201915b505050505081526020016003820180546104fa9061271d565b80601f01602080910402602001604051908101604052809291908181526020018280546105269061271d565b80156105735780601f1061054857610100808354040283529160200191610573565b820191906000526020600020905b81548152906001019060200180831161055657829003601f168201915b5050505050815260200160048201805461058c9061271d565b80601f01602080910402602001604051908101604052809291908181526020018280546105b89061271d565b80156106055780601f106105da57610100808354040283529160200191610605565b820191906000526020600020905b8154815290600101906020018083116105e857829003601f168201915b5050505050815260200160058201805461061e9061271d565b80601f016020809104026020016040519081016040528092919081815260200182805461064a9061271d565b80156106975780601f1061066c57610100808354040283529160200191610697565b820191906000526020600020905b81548152906001019060200180831161067a57829003601f168201915b505050505081526020016006820180546106b09061271d565b80601f01602080910402602001604051908101604052809291908181526020018280546106dc9061271d565b80156107295780601f106106fe57610100808354040283529160200191610729565b820191906000526020600020905b81548152906001019060200180831161070c57829003601f168201915b505050505081526020016007820180546107429061271d565b80601f016020809104026020016040519081016040528092919081815260200182805461076e9061271d565b80156107bb5780601f10610790576101008083540402835291602001916107bb565b820191906000526020600020905b81548152906001019060200180831161079e57829003601f168201915b505050505081525050905080600001518160200151826040015183606001518460c0015185608001518660a001518760e001519850985098509850985098509850985050919395975091939597565b600060608060608060608060606001600281111561082b5761082a61262d565b5b600260003373ffffffffffffffffffffffffffffffffffffffff1673ffffffffffffffffffffffffffffffffffffffff16815260200190815260200160002054146108ab576040517f08c379a00000000000000000000000000000000000000000000000000000000081526004016108a2906127c0565b60405180910390fd5b60008060008b73ffffffffffffffffffffffffffffffffffffffff1673ffffffffffffffffffffffffffffffffffffffff16815260200190815260200160002060405180610100016040529081600082015481526020016001820180546109119061271d565b80601f016020809104026020016040519081016040528092919081815260200182805461093d9061271d565b801561098a5780601f1061095f5761010080835404028352916020019161098a565b820191906000526020600020905b81548152906001019060200180831161096d57829003601f168201915b505050505081526020016002820180546109a39061271d565b80601f01602080910402602001604051908101604052809291908181526020018280546109cf9061271d565b8015610a1c5780601f106109f157610100808354040283529160200191610a1c565b820191906000526020600020905b8154815290600101906020018083116109ff57829003601f168201915b50505050508152602001600382018054610a359061271d565b80601f0160208091040260200160405190810160405280929190818152602001828054610a619061271d565b8015610aae5780601f10610a8357610100808354040283529160200191610aae565b820191906000526020600020905b815481529060010190602001808311610a9157829003601f168201915b50505050508152602001600482018054610ac79061271d565b80601f0160208091040260200160405190810160405280929190818152602001828054610af39061271d565b8015610b405780601f10610b1557610100808354040283529160200191610b40565b820191906000526020600020905b815481529060010190602001808311610b2357829003601f168201915b50505050508152602001600582018054610b599061271d565b80601f0160208091040260200160405190810160405280929190818152602001828054610b859061271d565b8015610bd25780601f10610ba757610100808354040283529160200191610bd2565b820191906000526020600020905b815481529060010190602001808311610bb557829003601f168201915b50505050508152602001600682018054610beb9061271d565b80601f0160208091040260200160405190810160405280929190818152602001828054610c179061271d565b8015610c645780601f10610c3957610100808354040283529160200191610c64565b820191906000526020600020905b815481529060010190602001808311610c4757829003601f168201915b50505050508152602001600782018054610c7d9061271d565b80601f0160208091040260200160405190810160405280929190818152602001828054610ca99061271d565b8015610cf65780601f10610ccb57610100808354040283529160200191610cf6565b820191906000526020600020905b815481529060010190602001808311610cd957829003601f168201915b5050505050815250509050806000015181602001518260400151836060015184608001518560a001518660c001518760e001519850985098509850985098509850985050919395975091939597565b6000600160003373ffffffffffffffffffffffffffffffffffffffff1673ffffffffffffffffffffffffffffffffffffffff1681526020019081526020016000206000015414610dca576040517f08c379a0000000000000000000000000000000000000000000000000000000008152600401610dc19061282c565b60405180910390fd5b60405180610100016040528089815260200188815260200187815260200186815260200185815260200184815260200183815260200182815250600160003373ffffffffffffffffffffffffffffffffffffffff1673ffffffffffffffffffffffffffffffffffffffff168152602001908152602001600020600082015181600001556020820151816001019081610e6291906129f8565b506040820151816002019081610e7891906129f8565b506060820151816003019081610e8e91906129f8565b506080820151816004019081610ea491906129f8565b5060a0820151816005019081610eba91906129f8565b5060c0820151816006019081610ed091906129f8565b5060e0820151816007019081610ee691906129f8565b50905050610ef46002612031565b60046000815480929190610f0790612af9565b91905055505050505050505050565b600280811115610f2957610f2861262d565b5b600260003373ffffffffffffffffffffffffffffffffffffffff1673ffffffffffffffffffffffffffffffffffffffff1681526020019081526020016000205414610fa9576040517f08c379a0000000000000000000000000000000000000000000000000000000008152600401610fa0906126ce565b60405180910390fd5b6000600160003373ffffffffffffffffffffffffffffffffffffffff1673ffffffffffffffffffffffffffffffffffffffff168152602001908152602001600020600001540361102e576040517f08c379a000000000000000000000000000000000000000000000000000000000815260040161102590612b8d565b60405180910390fd5b60405180610100016040528089815260200188815260200187815260200186815260200185815260200184815260200183815260200182815250600160003373ffffffffffffffffffffffffffffffffffffffff1673ffffffffffffffffffffffffffffffffffffffff1681526020019081526020016000206000820151816000015560208201518160010190816110c691906129f8565b5060408201518160020190816110dc91906129f8565b5060608201518160030190816110f291906129f8565b50608082015181600401908161110891906129f8565b5060a082015181600501908161111e91906129f8565b5060c082015181600601908161113491906129f8565b5060e082015181600701908161114a91906129f8565b509050505050505050505050565b600060608060608060608060606000600260003373ffffffffffffffffffffffffffffffffffffffff1673ffffffffffffffffffffffffffffffffffffffff1681526020019081526020016000205460028111156111b9576111b861262d565b5b9050600160028111156111cf576111ce61262d565b5b8160028111156111e2576111e161262d565b5b03611206576111f03361080a565b985098509850985098509850985098505061128b565b6002808111156112195761121861262d565b5b81600281111561122c5761122b61262d565b5b036112505761123a336102cf565b985098509850985098509850985098505061128b565b6040517f08c379a000000000000000000000000000000000000000000000000000000000815260040161128290612bf9565b60405180910390fd5b9091929394959697565b60026020528060005260406000206000915090505481565b60045481565b600160028111156112c7576112c661262d565b5b600260003373ffffffffffffffffffffffffffffffffffffffff1673ffffffffffffffffffffffffffffffffffffffff1681526020019081526020016000205414611347576040517f08c379a000000000000000000000000000000000000000000000000000000000815260040161133e906127c0565b60405180910390fd5b60008060003373ffffffffffffffffffffffffffffffffffffffff1673ffffffffffffffffffffffffffffffffffffffff16815260200190815260200160002060000154036113cb576040517f08c379a00000000000000000000000000000000000000000000000000000000081526004016113c290612c65565b60405180910390fd5b604051806101000160405280898152602001888152602001868152602001858152602001878152602001828152602001848152602001838152506000803373ffffffffffffffffffffffffffffffffffffffff1673ffffffffffffffffffffffffffffffffffffffff16815260200190815260200160002060008201518160000155602082015181600101908161146291906129f8565b50604082015181600201908161147891906129f8565b50606082015181600301908161148e91906129f8565b5060808201518160040190816114a491906129f8565b5060a08201518160050190816114ba91906129f8565b5060c08201518160060190816114d091906129f8565b5060e08201518160070190816114e691906129f8565b509050505050505050505050565b60606000600260003373ffffffffffffffffffffffffffffffffffffffff1673ffffffffffffffffffffffffffffffffffffffff16815260200190815260200160002054600281111561154a5761154961262d565b5b9050600160028111156115605761155f61262d565b5b8160028111156115735761157261262d565b5b036115b6576040518060400160405280600781526020017f53747564656e7400000000000000000000000000000000000000000000000000815250915050611659565b6002808111156115c9576115c861262d565b5b8160028111156115dc576115db61262d565b5b0361161f576040518060400160405280600781526020017f466163756c747900000000000000000000000000000000000000000000000000815250915050611659565b6040518060400160405280600481526020017f4e6f6e65000000000000000000000000000000000000000000000000000000008152509150505b90565b60035481565b60008060003373ffffffffffffffffffffffffffffffffffffffff1673ffffffffffffffffffffffffffffffffffffffff16815260200190815260200160002060000154146116e6576040517f08c379a00000000000000000000000000000000000000000000000000000000081526004016116dd90612cd1565b60405180910390fd5b604051806101000160405280898152602001888152602001868152602001858152602001878152602001828152602001848152602001838152506000803373ffffffffffffffffffffffffffffffffffffffff1673ffffffffffffffffffffffffffffffffffffffff16815260200190815260200160002060008201518160000155602082015181600101908161177d91906129f8565b50604082015181600201908161179391906129f8565b5060608201518160030190816117a991906129f8565b5060808201518160040190816117bf91906129f8565b5060a08201518160050190816117d591906129f8565b5060c08201518160060190816117eb91906129f8565b5060e082015181600701908161180191906129f8565b5090505061180f6001612031565b6003600081548092919061182290612af9565b91905055505050505050505050565b600060205280600052604060002060009150905080600001549080600101805461185a9061271d565b80601f01602080910402602001604051908101604052809291908181526020018280546118869061271d565b80156118d35780601f106118a8576101008083540402835291602001916118d3565b820191906000526020600020905b8154815290600101906020018083116118b657829003601f168201915b5050505050908060020180546118e89061271d565b80601f01602080910402602001604051908101604052809291908181526020018280546119149061271d565b80156119615780601f1061193657610100808354040283529160200191611961565b820191906000526020600020905b81548152906001019060200180831161194457829003601f168201915b5050505050908060030180546119769061271d565b80601f01602080910402602001604051908101604052809291908181526020018280546119a29061271d565b80156119ef5780601f106119c4576101008083540402835291602001916119ef565b820191906000526020600020905b8154815290600101906020018083116119d257829003601f168201915b505050505090806004018054611a049061271d565b80601f0160208091040260200160405190810160405280929190818152602001828054611a309061271d565b8015611a7d5780601f10611a5257610100808354040283529160200191611a7d565b820191906000526020600020905b815481529060010190602001808311611a6057829003601f168201915b505050505090806005018054611a929061271d565b80601f0160208091040260200160405190810160405280929190818152602001828054611abe9061271d565b8015611b0b5780601f10611ae057610100808354040283529160200191611b0b565b820191906000526020600020905b815481529060010190602001808311611aee57829003601f168201915b505050505090806006018054611b209061271d565b80601f0160208091040260200160405190810160405280929190818152602001828054611b4c9061271d565b8015611b995780601f10611b6e57610100808354040283529160200191611b99565b820191906000526020600020905b815481529060010190602001808311611b7c57829003601f168201915b505050505090806007018054611bae9061271d565b80601f0160208091040260200160405190810160405280929190818152602001828054611bda9061271d565b8015611c275780601f10611bfc57610100808354040283529160200191611c27565b820191906000526020600020905b815481529060010190602001808311611c0a57829003601f168201915b5050505050905088565b6001602052806000526040600020600091509050806000015490806001018054611c5a9061271d565b80601f0160208091040260200160405190810160405280929190818152602001828054611c869061271d565b8015611cd35780601f10611ca857610100808354040283529160200191611cd3565b820191906000526020600020905b815481529060010190602001808311611cb657829003601f168201915b505050505090806002018054611ce89061271d565b80601f0160208091040260200160405190810160405280929190818152602001828054611d149061271d565b8015611d615780601f10611d3657610100808354040283529160200191611d61565b820191906000526020600020905b815481529060010190602001808311611d4457829003601f168201915b505050505090806003018054611d769061271d565b80601f0160208091040260200160405190810160405280929190818152602001828054611da29061271d565b8015611def5780601f10611dc457610100808354040283529160200191611def565b820191906000526020600020905b815481529060010190602001808311611dd257829003601f168201915b505050505090806004018054611e049061271d565b80601f0160208091040260200160405190810160405280929190818152602001828054611e309061271d565b8015611e7d5780601f10611e5257610100808354040283529160200191611e7d565b820191906000526020600020905b815481529060010190602001808311611e6057829003601f168201915b505050505090806005018054611e929061271d565b80601f0160208091040260200160405190810160405280929190818152602001828054611ebe9061271d565b8015611f0b5780601f10611ee057610100808354040283529160200191611f0b565b820191906000526020600020905b815481529060010190602001808311611eee57829003601f168201915b505050505090806006018054611f209061271d565b80601f0160208091040260200160405190810160405280929190818152602001828054611f4c9061271d565b8015611f995780601f10611f6e57610100808354040283529160200191611f99565b820191906000526020600020905b815481529060010190602001808311611f7c57829003601f168201915b505050505090806007018054611fae9061271d565b80601f0160208091040260200160405190810160405280929190818152602001828054611fda9061271d565b80156120275780601f10611ffc57610100808354040283529160200191612027565b820191906000526020600020905b81548152906001019060200180831161200a57829003601f168201915b5050505050905088565b600060028111156120455761204461262d565b5b600260003373ffffffffffffffffffffffffffffffffffffffff1673ffffffffffffffffffffffffffffffffffffffff16815260200190815260200160002054146120c5576040517f08c379a00000000000000000000000000000000000000000000000000000000081526004016120bc90612d3d565b60405180910390fd5b8060028111156120d8576120d761262d565b5b600260003373ffffffffffffffffffffffffffffffffffffffff1673ffffffffffffffffffffffffffffffffffffffff1681526020019081526020016000208190555050565b6000604051905090565b600080fd5b600080fd5b600073ffffffffffffffffffffffffffffffffffffffff82169050919050565b600061215d82612132565b9050919050565b61216d81612152565b811461217857600080fd5b50565b60008135905061218a81612164565b92915050565b6000602082840312156121a6576121a5612128565b5b60006121b48482850161217b565b91505092915050565b6000819050919050565b6121d0816121bd565b82525050565b600081519050919050565b600082825260208201905092915050565b60005b838110156122105780820151818401526020810190506121f5565b60008484015250505050565b6000601f19601f8301169050919050565b6000612238826121d6565b61224281856121e1565b93506122528185602086016121f2565b61225b8161221c565b840191505092915050565b60006101008201905061227c600083018b6121c7565b818103602083015261228e818a61222d565b905081810360408301526122a2818961222d565b905081810360608301526122b6818861222d565b905081810360808301526122ca818761222d565b905081810360a08301526122de818661222d565b905081810360c08301526122f2818561222d565b905081810360e0830152612306818461222d565b90509998505050505050505050565b61231e816121bd565b811461232957600080fd5b50565b60008135905061233b81612315565b92915050565b600080fd5b600080fd5b7f4e487b7100000000000000000000000000000000000000000000000000000000600052604160045260246000fd5b6123838261221c565b810181811067ffffffffffffffff821117156123a2576123a161234b565b5b80604052505050565b60006123b561211e565b90506123c1828261237a565b919050565b600067ffffffffffffffff8211156123e1576123e061234b565b5b6123ea8261221c565b9050602081019050919050565b82818337600083830152505050565b6000612419612414846123c6565b6123ab565b90508281526020810184848401111561243557612434612346565b5b6124408482856123f7565b509392505050565b600082601f83011261245d5761245c612341565b5b813561246d848260208601612406565b91505092915050565b600080600080600080600080610100898b03121561249757612496612128565b5b60006124a58b828c0161232c565b985050602089013567ffffffffffffffff8111156124c6576124c561212d565b5b6124d28b828c01612448565b975050604089013567ffffffffffffffff8111156124f3576124f261212d565b5b6124ff8b828c01612448565b965050606089013567ffffffffffffffff8111156125205761251f61212d565b5b61252c8b828c01612448565b955050608089013567ffffffffffffffff81111561254d5761254c61212d565b5b6125598b828c01612448565b94505060a089013567ffffffffffffffff81111561257a5761257961212d565b5b6125868b828c01612448565b93505060c089013567ffffffffffffffff8111156125a7576125a661212d565b5b6125b38b828c01612448565b92505060e089013567ffffffffffffffff8111156125d4576125d361212d565b5b6125e08b828c01612448565b9150509295985092959890939650565b600060208201905061260560008301846121c7565b92915050565b60006020820190508181036000830152612625818461222d565b905092915050565b7f4e487b7100000000000000000000000000000000000000000000000000000000600052602160045260246000fd5b7f4f6e6c7920666163756c74792063616e2063616c6c20746869732066756e637460008201527f696f6e0000000000000000000000000000000000000000000000000000000000602082015250565b60006126b86023836121e1565b91506126c38261265c565b604082019050919050565b600060208201905081810360008301526126e7816126ab565b9050919050565b7f4e487b7100000000000000000000000000000000000000000000000000000000600052602260045260246000fd5b6000600282049050600182168061273557607f821691505b602082108103612748576127476126ee565b5b50919050565b7f4f6e6c792073747564656e74732063616e2063616c6c20746869732066756e6360008201527f74696f6e00000000000000000000000000000000000000000000000000000000602082015250565b60006127aa6024836121e1565b91506127b58261274e565b604082019050919050565b600060208201905081810360008301526127d98161279d565b9050919050565b7f466163756c747920616c72656164792065786973747300000000000000000000600082015250565b60006128166016836121e1565b9150612821826127e0565b602082019050919050565b6000602082019050818103600083015261284581612809565b9050919050565b60008190508160005260206000209050919050565b60006020601f8301049050919050565b600082821b905092915050565b6000600883026128ae7fffffffffffffffffffffffffffffffffffffffffffffffffffffffffffffffff82612871565b6128b88683612871565b95508019841693508086168417925050509392505050565b6000819050919050565b60006128f56128f06128eb846121bd565b6128d0565b6121bd565b9050919050565b6000819050919050565b61290f836128da565b61292361291b826128fc565b84845461287e565b825550505050565b600090565b61293861292b565b612943818484612906565b505050565b5b818110156129675761295c600082612930565b600181019050612949565b5050565b601f8211156129ac5761297d8161284c565b61298684612861565b81016020851015612995578190505b6129a96129a185612861565b830182612948565b50505b505050565b600082821c905092915050565b60006129cf600019846008026129b1565b1980831691505092915050565b60006129e883836129be565b9150826002028217905092915050565b612a01826121d6565b67ffffffffffffffff811115612a1a57612a1961234b565b5b612a24825461271d565b612a2f82828561296b565b600060209050601f831160018114612a625760008415612a50578287015190505b612a5a85826129dc565b865550612ac2565b601f198416612a708661284c565b60005b82811015612a9857848901518255600182019150602085019450602081019050612a73565b86831015612ab55784890151612ab1601f8916826129be565b8355505b6001600288020188555050505b505050505050565b7f4e487b7100000000000000000000000000000000000000000000000000000000600052601160045260246000fd5b6000612b04826121bd565b91507fffffffffffffffffffffffffffffffffffffffffffffffffffffffffffffffff8203612b3657612b35612aca565b5b600182019050919050565b7f466163756c747920646f6573206e6f7420657869737400000000000000000000600082015250565b6000612b776016836121e1565b9150612b8282612b41565b602082019050919050565b60006020820190508181036000830152612ba681612b6a565b9050919050565b7f55736572206e6f7420666f756e64000000000000000000000000000000000000600082015250565b6000612be3600e836121e1565b9150612bee82612bad565b602082019050919050565b60006020820190508181036000830152612c1281612bd6565b9050919050565b7f53747564656e7420646f6573206e6f7420657869737400000000000000000000600082015250565b6000612c4f6016836121e1565b9150612c5a82612c19565b602082019050919050565b60006020820190508181036000830152612c7e81612c42565b9050919050565b7f53747564656e7420616c72656164792065786973747300000000000000000000600082015250565b6000612cbb6016836121e1565b9150612cc682612c85565b602082019050919050565b60006020820190508181036000830152612cea81612cae565b9050919050565b7f5573657220726f6c6520616c7265616479207365740000000000000000000000600082015250565b6000612d276015836121e1565b9150612d3282612cf1565b602082019050919050565b60006020820190508181036000830152612d5681612d1a565b905091905056fea26469706673582212204c417de2d394908e608d83f78b245e28f5758f50c72c1868bfd3c217e4a6a84a64736f6c63430008130033",
  "linkReferences": {},
  "deployedLinkReferences": {}
}